{
  "contractName": "Campaign",
  "abi": [
    {
      "inputs": [
        {
          "internalType": "uint256",
          "name": "minimum",
          "type": "uint256"
        },
        {
          "internalType": "address",
          "name": "creator",
          "type": "address"
        }
      ],
      "stateMutability": "nonpayable",
      "type": "constructor"
    },
    {
      "inputs": [
        {
          "internalType": "address",
          "name": "",
          "type": "address"
        }
      ],
      "name": "approvers",
      "outputs": [
        {
          "internalType": "bool",
          "name": "",
          "type": "bool"
        }
      ],
      "stateMutability": "view",
      "type": "function"
    },
    {
      "inputs": [],
      "name": "approversCount",
      "outputs": [
        {
          "internalType": "uint256",
          "name": "",
          "type": "uint256"
        }
      ],
      "stateMutability": "view",
      "type": "function"
    },
    {
      "inputs": [],
      "name": "manager",
      "outputs": [
        {
          "internalType": "address",
          "name": "",
          "type": "address"
        }
      ],
      "stateMutability": "view",
      "type": "function"
    },
    {
      "inputs": [],
      "name": "minimumContribution",
      "outputs": [
        {
          "internalType": "uint256",
          "name": "",
          "type": "uint256"
        }
      ],
      "stateMutability": "view",
      "type": "function"
    },
    {
      "inputs": [],
      "name": "requestCount",
      "outputs": [
        {
          "internalType": "uint256",
          "name": "",
          "type": "uint256"
        }
      ],
      "stateMutability": "view",
      "type": "function"
    },
    {
      "inputs": [
        {
          "internalType": "uint256",
          "name": "",
          "type": "uint256"
        }
      ],
      "name": "requests",
      "outputs": [
        {
          "internalType": "string",
          "name": "description",
          "type": "string"
        },
        {
          "internalType": "uint256",
          "name": "value",
          "type": "uint256"
        },
        {
          "internalType": "address payable",
          "name": "recipient",
          "type": "address"
        },
        {
          "internalType": "bool",
          "name": "complete",
          "type": "bool"
        },
        {
          "internalType": "uint256",
          "name": "approvalCount",
          "type": "uint256"
        }
      ],
      "stateMutability": "view",
      "type": "function"
    },
    {
      "inputs": [],
      "name": "contribute",
      "outputs": [],
      "stateMutability": "payable",
      "type": "function"
    },
    {
      "inputs": [
        {
          "internalType": "string",
          "name": "description",
          "type": "string"
        },
        {
          "internalType": "uint256",
          "name": "value",
          "type": "uint256"
        },
        {
          "internalType": "address",
          "name": "recipient",
          "type": "address"
        }
      ],
      "name": "createRequest",
      "outputs": [],
      "stateMutability": "payable",
      "type": "function"
    },
    {
      "inputs": [
        {
          "internalType": "uint256",
          "name": "index",
          "type": "uint256"
        }
      ],
      "name": "approveRequest",
      "outputs": [],
      "stateMutability": "payable",
      "type": "function"
    },
    {
      "inputs": [
        {
          "internalType": "uint256",
          "name": "index",
          "type": "uint256"
        }
      ],
      "name": "finalizeRequest",
      "outputs": [],
      "stateMutability": "payable",
      "type": "function"
    }
  ],
  "bytecode": "0x60806040523480156200001157600080fd5b50604051620013e6380380620013e683398181016040528101906200003791906200012c565b80600260006101000a81548173ffffffffffffffffffffffffffffffffffffffff021916908373ffffffffffffffffffffffffffffffffffffffff16021790555081600381905550505062000173565b600080fd5b6000819050919050565b620000a1816200008c565b8114620000ad57600080fd5b50565b600081519050620000c18162000096565b92915050565b600073ffffffffffffffffffffffffffffffffffffffff82169050919050565b6000620000f482620000c7565b9050919050565b6200010681620000e7565b81146200011257600080fd5b50565b6000815190506200012681620000fb565b92915050565b6000806040838503121562000146576200014562000087565b5b60006200015685828601620000b0565b9250506020620001698582860162000115565b9150509250929050565b61126380620001836000396000f3fe6080604052600436106100915760003560e01c806382fde0931161005957806382fde093146101865780638a9cfd55146101b1578063937e09b1146101cd578063d7bb99ba146101f8578063d7d1bbdb1461020257610091565b806303441006146100965780630a144391146100b2578063481c6a75146100ef5780635badbe4c1461011a57806381d12c5814610145575b600080fd5b6100b060048036038101906100ab91906109da565b61021e565b005b3480156100be57600080fd5b506100d960048036038101906100d49190610a65565b6103fc565b6040516100e69190610aad565b60405180910390f35b3480156100fb57600080fd5b5061010461041c565b6040516101119190610ad7565b60405180910390f35b34801561012657600080fd5b5061012f610442565b60405161013c9190610b01565b60405180910390f35b34801561015157600080fd5b5061016c600480360381019061016791906109da565b610448565b60405161017d959493929190610bd6565b60405180910390f35b34801561019257600080fd5b5061019b610533565b6040516101a89190610b01565b60405180910390f35b6101cb60048036038101906101c69190610d65565b610539565b005b3480156101d957600080fd5b506101e2610687565b6040516101ef9190610b01565b60405180910390f35b61020061068d565b005b61021c600480360381019061021791906109da565b610743565b005b600260009054906101000a900473ffffffffffffffffffffffffffffffffffffffff1673ffffffffffffffffffffffffffffffffffffffff163373ffffffffffffffffffffffffffffffffffffffff16146102ae576040517f08c379a00000000000000000000000000000000000000000000000000000000081526004016102a590610e46565b60405180910390fd5b600060016000838152602001908152602001600020905060026005546102d49190610ec4565b8160030154101561031a576040517f08c379a000000000000000000000000000000000000000000000000000000000815260040161031190610f67565b60405180910390fd5b8060020160149054906101000a900460ff161561036c576040517f08c379a000000000000000000000000000000000000000000000000000000000815260040161036390610fd3565b60405180910390fd5b8060020160009054906101000a900473ffffffffffffffffffffffffffffffffffffffff1673ffffffffffffffffffffffffffffffffffffffff166108fc82600101549081150290604051600060405180830381858888f193505050501580156103da573d6000803e3d6000fd5b5060018160020160146101000a81548160ff0219169083151502179055505050565b60046020528060005260406000206000915054906101000a900460ff1681565b600260009054906101000a900473ffffffffffffffffffffffffffffffffffffffff1681565b60005481565b600160205280600052604060002060009150905080600001805461046b90611022565b80601f016020809104026020016040519081016040528092919081815260200182805461049790611022565b80156104e45780601f106104b9576101008083540402835291602001916104e4565b820191906000526020600020905b8154815290600101906020018083116104c757829003601f168201915b5050505050908060010154908060020160009054906101000a900473ffffffffffffffffffffffffffffffffffffffff16908060020160149054906101000a900460ff16908060030154905085565b60055481565b600260009054906101000a900473ffffffffffffffffffffffffffffffffffffffff1673ffffffffffffffffffffffffffffffffffffffff163373ffffffffffffffffffffffffffffffffffffffff16146105c9576040517f08c379a00000000000000000000000000000000000000000000000000000000081526004016105c090610e46565b60405180910390fd5b6000600160008060008154809291906105e190611054565b91905055815260200190815260200160002090508381600001908051906020019061060d9291906108ed565b50828160010181905550818160020160006101000a81548173ffffffffffffffffffffffffffffffffffffffff021916908373ffffffffffffffffffffffffffffffffffffffff16021790555060008160020160146101000a81548160ff0219169083151502179055506000816003018190555050505050565b60035481565b60035434116106d1576040517f08c379a00000000000000000000000000000000000000000000000000000000081526004016106c89061110f565b60405180910390fd5b6001600460003373ffffffffffffffffffffffffffffffffffffffff1673ffffffffffffffffffffffffffffffffffffffff16815260200190815260200160002060006101000a81548160ff0219169083151502179055506005600081548092919061073c90611054565b9190505550565b6000600160008381526020019081526020016000209050600460003373ffffffffffffffffffffffffffffffffffffffff1673ffffffffffffffffffffffffffffffffffffffff16815260200190815260200160002060009054906101000a900460ff166107e6576040517f08c379a00000000000000000000000000000000000000000000000000000000081526004016107dd9061117b565b60405180910390fd5b8060040160003373ffffffffffffffffffffffffffffffffffffffff1673ffffffffffffffffffffffffffffffffffffffff16815260200190815260200160002060009054906101000a900460ff1615610875576040517f08c379a000000000000000000000000000000000000000000000000000000000815260040161086c9061120d565b60405180910390fd5b60018160040160003373ffffffffffffffffffffffffffffffffffffffff1673ffffffffffffffffffffffffffffffffffffffff16815260200190815260200160002060006101000a81548160ff0219169083151502179055508060030160008154809291906108e490611054565b91905055505050565b8280546108f990611022565b90600052602060002090601f01602090048101928261091b5760008555610962565b82601f1061093457805160ff1916838001178555610962565b82800160010185558215610962579182015b82811115610961578251825591602001919060010190610946565b5b50905061096f9190610973565b5090565b5b8082111561098c576000816000905550600101610974565b5090565b6000604051905090565b600080fd5b600080fd5b6000819050919050565b6109b7816109a4565b81146109c257600080fd5b50565b6000813590506109d4816109ae565b92915050565b6000602082840312156109f0576109ef61099a565b5b60006109fe848285016109c5565b91505092915050565b600073ffffffffffffffffffffffffffffffffffffffff82169050919050565b6000610a3282610a07565b9050919050565b610a4281610a27565b8114610a4d57600080fd5b50565b600081359050610a5f81610a39565b92915050565b600060208284031215610a7b57610a7a61099a565b5b6000610a8984828501610a50565b91505092915050565b60008115159050919050565b610aa781610a92565b82525050565b6000602082019050610ac26000830184610a9e565b92915050565b610ad181610a27565b82525050565b6000602082019050610aec6000830184610ac8565b92915050565b610afb816109a4565b82525050565b6000602082019050610b166000830184610af2565b92915050565b600081519050919050565b600082825260208201905092915050565b60005b83811015610b56578082015181840152602081019050610b3b565b83811115610b65576000848401525b50505050565b6000601f19601f8301169050919050565b6000610b8782610b1c565b610b918185610b27565b9350610ba1818560208601610b38565b610baa81610b6b565b840191505092915050565b6000610bc082610a07565b9050919050565b610bd081610bb5565b82525050565b600060a0820190508181036000830152610bf08188610b7c565b9050610bff6020830187610af2565b610c0c6040830186610bc7565b610c196060830185610a9e565b610c266080830184610af2565b9695505050505050565b600080fd5b600080fd5b7f4e487b7100000000000000000000000000000000000000000000000000000000600052604160045260246000fd5b610c7282610b6b565b810181811067ffffffffffffffff82111715610c9157610c90610c3a565b5b80604052505050565b6000610ca4610990565b9050610cb08282610c69565b919050565b600067ffffffffffffffff821115610cd057610ccf610c3a565b5b610cd982610b6b565b9050602081019050919050565b82818337600083830152505050565b6000610d08610d0384610cb5565b610c9a565b905082815260208101848484011115610d2457610d23610c35565b5b610d2f848285610ce6565b509392505050565b600082601f830112610d4c57610d4b610c30565b5b8135610d5c848260208601610cf5565b91505092915050565b600080600060608486031215610d7e57610d7d61099a565b5b600084013567ffffffffffffffff811115610d9c57610d9b61099f565b5b610da886828701610d37565b9350506020610db9868287016109c5565b9250506040610dca86828701610a50565b9150509250925092565b7f596f7520617265206e6f7420746865206d616e61676572206f6620746869732060008201527f63616d706169676e000000000000000000000000000000000000000000000000602082015250565b6000610e30602883610b27565b9150610e3b82610dd4565b604082019050919050565b60006020820190508181036000830152610e5f81610e23565b9050919050565b7f4e487b7100000000000000000000000000000000000000000000000000000000600052601260045260246000fd5b7f4e487b7100000000000000000000000000000000000000000000000000000000600052601160045260246000fd5b6000610ecf826109a4565b9150610eda836109a4565b925082610eea57610ee9610e66565b5b828204905092915050565b7f4e6f7420656e6f75676820617070726f7665727320666f72207468697320726560008201527f7175657374000000000000000000000000000000000000000000000000000000602082015250565b6000610f51602583610b27565b9150610f5c82610ef5565b604082019050919050565b60006020820190508181036000830152610f8081610f44565b9050919050565b7f54686973207265717565737420686173206265656e20636f6d706c6574656400600082015250565b6000610fbd601f83610b27565b9150610fc882610f87565b602082019050919050565b60006020820190508181036000830152610fec81610fb0565b9050919050565b7f4e487b7100000000000000000000000000000000000000000000000000000000600052602260045260246000fd5b6000600282049050600182168061103a57607f821691505b6020821081141561104e5761104d610ff3565b5b50919050565b600061105f826109a4565b91507fffffffffffffffffffffffffffffffffffffffffffffffffffffffffffffffff82141561109257611091610e95565b5b600182019050919050565b7f596f7520636f6e747269627574696f696e206973206c6f776572207468616e2060008201527f746865206d696e696d756d20666f7220746869732063616d706169676e000000602082015250565b60006110f9603d83610b27565b91506111048261109d565b604082019050919050565b60006020820190508181036000830152611128816110ec565b9050919050565b7f596f752068617665206e6f7420646f6e61746564207965740000000000000000600082015250565b6000611165601883610b27565b91506111708261112f565b602082019050919050565b6000602082019050818103600083015261119481611158565b9050919050565b7f596f75206861766520616c726561647920617070726f7665642074686973207260008201527f6571756573740000000000000000000000000000000000000000000000000000602082015250565b60006111f7602683610b27565b91506112028261119b565b604082019050919050565b60006020820190508181036000830152611226816111ea565b905091905056fea264697066735822122094bfd259c034a1b0d6e6bcbd1cd62b38bdccaf1ba9e8ea65117912acef3781f064736f6c634300080c0033",
  "immutableReferences": {},
  "source": "// SPDX-License-Identifier: MIT\n\npragma solidity ^0.8.12;\n\ncontract CampaignFactory {\n    address[] public deployedCampaigns;\n\n    function createCampaign(uint minimum) public {\n        address newCampaign = address(new Campaign(minimum, msg.sender));\n        deployedCampaigns.push(newCampaign);\n    }\n\n    function getDeployedCampaigns() public view returns (address[] memory) {\n        return deployedCampaigns;\n    }\n}\n\ncontract Campaign {\n    struct Request {\n        string description;\n        uint value;\n        address payable recipient;\n        bool complete;\n        uint approvalCount;\n        mapping(address => bool) approvals;\n    }\n\n    uint public requestCount;\n    mapping(uint => Request) public requests;\n\n    address public manager;\n    uint public minimumContribution;\n    mapping(address => bool) public approvers;\n    uint public approversCount;\n\n    modifier restricted() {\n        require(msg.sender == manager, \"You are not the manager of this campaign\");\n        _;\n    }\n\n    constructor(uint minimum, address creator) {\n        manager = creator;\n        minimumContribution = minimum;\n    }\n\n    function contribute() public payable {\n        require(msg.value > minimumContribution, \"You contributioin is lower than the minimum for this campaign\");\n        approvers[msg.sender] = true;\n        approversCount++;\n    }\n\n    function createRequest(\n        string memory description, \n        uint value, \n        address recipient) \n        public payable restricted \n    {\n        Request storage newRequest = requests[requestCount++];\n        newRequest.description = description;\n        newRequest.value = value;\n        newRequest.recipient = payable(recipient);\n        newRequest.complete = false;\n        newRequest.approvalCount = 0;\n    }\n\n    function approveRequest(uint index) public payable {\n        Request storage request = requests[index];\n\n        require(approvers[msg.sender], \"You have not donated yet\");\n        require(!request.approvals[msg.sender], \"You have already approved this request\");\n\n        request.approvals[msg.sender] = true;\n        request.approvalCount++;\n    }\n\n    function finalizeRequest(uint index) public payable restricted {\n        Request storage request = requests[index];\n        require(request.approvalCount >= (approversCount / 2), \"Not enough approvers for this request\");\n        require(!request.complete, \"This request has been completed\");\n\n        request.recipient.transfer(request.value);\n        request.complete = true;\n    }\n}",
  "sourcePath": "/Users/gideonnnalue/Documents/Learn/blockchain/kickstart-project/contracts/Campaign.sol",
  "compiler": {
    "name": "solc",
    "version": "0.8.12+commit.f00d7308.Emscripten.clang"
  },
  "schemaVersion": "3.4.5",
  "updatedAt": "2022-04-05T13:23:59.823Z",
  "devdoc": {
    "kind": "dev",
    "methods": {},
    "version": 1
  },
  "userdoc": {
    "kind": "user",
    "methods": {},
    "version": 1
  }
}